:060000000A128A11142906
:100200008A010A140F3982073F3406345B344F34B5
:1002100066346D347D3407347F34673477347C340E
:1002200039345E34793471343C2122213521031371
:1002300083120B194B210618512186185B216B2163
:100240007621192903178316880189010313831660
:10025000850187018801890106148614031383121E
:1002600085018701880189010800031383160F1790
:100270008F120F120F1408000313831681128111BD
:1002800001158114011403138312472108009F30C4
:1002900081000B110800870AA10A4721071A87016C
:1002A0000800922106185229A00A201AA00120084D
:1002B000002185000800922186185C29A003201ADD
:1002C00065212008002185000800A0012014A01449
:1002D0002015A015080006302107A400241A71215A
:1002E0000800A101880A081A8801080020080802ED
:1002F000A50025188B29A5188B2925198B29A51947
:100300008B29251A8B29A51A8B29251B8B29A51B1F
:100310008B298C218F2108008801A1010800013060
:0E032000890608009630A200A20B942908005E
:04400E00D420FF3F7C
:00000001FF
